{
  "_format": "hh-sol-artifact-1",
  "contractName": "JHU_ETH_Hackathon",
  "sourceName": "contracts/ERC721.sol",
  "abi": [
    {
      "inputs": [
        {
          "internalType": "address",
          "name": "initialOwner",
          "type": "address"
        }
      ],
      "stateMutability": "nonpayable",
      "type": "constructor"
    },
    {
      "inputs": [
        {
          "internalType": "address",
          "name": "sender",
          "type": "address"
        },
        {
          "internalType": "uint256",
          "name": "tokenId",
          "type": "uint256"
        },
        {
          "internalType": "address",
          "name": "owner",
          "type": "address"
        }
      ],
      "name": "ERC721IncorrectOwner",
      "type": "error"
    },
    {
      "inputs": [
        {
          "internalType": "address",
          "name": "operator",
          "type": "address"
        },
        {
          "internalType": "uint256",
          "name": "tokenId",
          "type": "uint256"
        }
      ],
      "name": "ERC721InsufficientApproval",
      "type": "error"
    },
    {
      "inputs": [
        {
          "internalType": "address",
          "name": "approver",
          "type": "address"
        }
      ],
      "name": "ERC721InvalidApprover",
      "type": "error"
    },
    {
      "inputs": [
        {
          "internalType": "address",
          "name": "operator",
          "type": "address"
        }
      ],
      "name": "ERC721InvalidOperator",
      "type": "error"
    },
    {
      "inputs": [
        {
          "internalType": "address",
          "name": "owner",
          "type": "address"
        }
      ],
      "name": "ERC721InvalidOwner",
      "type": "error"
    },
    {
      "inputs": [
        {
          "internalType": "address",
          "name": "receiver",
          "type": "address"
        }
      ],
      "name": "ERC721InvalidReceiver",
      "type": "error"
    },
    {
      "inputs": [
        {
          "internalType": "address",
          "name": "sender",
          "type": "address"
        }
      ],
      "name": "ERC721InvalidSender",
      "type": "error"
    },
    {
      "inputs": [
        {
          "internalType": "uint256",
          "name": "tokenId",
          "type": "uint256"
        }
      ],
      "name": "ERC721NonexistentToken",
      "type": "error"
    },
    {
      "inputs": [
        {
          "internalType": "address",
          "name": "owner",
          "type": "address"
        }
      ],
      "name": "OwnableInvalidOwner",
      "type": "error"
    },
    {
      "inputs": [
        {
          "internalType": "address",
          "name": "account",
          "type": "address"
        }
      ],
      "name": "OwnableUnauthorizedAccount",
      "type": "error"
    },
    {
      "anonymous": false,
      "inputs": [
        {
          "indexed": true,
          "internalType": "address",
          "name": "owner",
          "type": "address"
        },
        {
          "indexed": true,
          "internalType": "address",
          "name": "approved",
          "type": "address"
        },
        {
          "indexed": true,
          "internalType": "uint256",
          "name": "tokenId",
          "type": "uint256"
        }
      ],
      "name": "Approval",
      "type": "event"
    },
    {
      "anonymous": false,
      "inputs": [
        {
          "indexed": true,
          "internalType": "address",
          "name": "owner",
          "type": "address"
        },
        {
          "indexed": true,
          "internalType": "address",
          "name": "operator",
          "type": "address"
        },
        {
          "indexed": false,
          "internalType": "bool",
          "name": "approved",
          "type": "bool"
        }
      ],
      "name": "ApprovalForAll",
      "type": "event"
    },
    {
      "anonymous": false,
      "inputs": [
        {
          "indexed": true,
          "internalType": "address",
          "name": "previousOwner",
          "type": "address"
        },
        {
          "indexed": true,
          "internalType": "address",
          "name": "newOwner",
          "type": "address"
        }
      ],
      "name": "OwnershipTransferred",
      "type": "event"
    },
    {
      "anonymous": false,
      "inputs": [
        {
          "indexed": true,
          "internalType": "address",
          "name": "from",
          "type": "address"
        },
        {
          "indexed": true,
          "internalType": "address",
          "name": "to",
          "type": "address"
        },
        {
          "indexed": true,
          "internalType": "uint256",
          "name": "tokenId",
          "type": "uint256"
        }
      ],
      "name": "Transfer",
      "type": "event"
    },
    {
      "inputs": [
        {
          "internalType": "address",
          "name": "to",
          "type": "address"
        },
        {
          "internalType": "uint256",
          "name": "tokenId",
          "type": "uint256"
        }
      ],
      "name": "approve",
      "outputs": [],
      "stateMutability": "nonpayable",
      "type": "function"
    },
    {
      "inputs": [
        {
          "internalType": "address",
          "name": "owner",
          "type": "address"
        }
      ],
      "name": "balanceOf",
      "outputs": [
        {
          "internalType": "uint256",
          "name": "",
          "type": "uint256"
        }
      ],
      "stateMutability": "view",
      "type": "function"
    },
    {
      "inputs": [
        {
          "internalType": "uint256",
          "name": "tokenId",
          "type": "uint256"
        }
      ],
      "name": "burn",
      "outputs": [],
      "stateMutability": "nonpayable",
      "type": "function"
    },
    {
      "inputs": [
        {
          "internalType": "uint256",
          "name": "tokenId",
          "type": "uint256"
        }
      ],
      "name": "getApproved",
      "outputs": [
        {
          "internalType": "address",
          "name": "",
          "type": "address"
        }
      ],
      "stateMutability": "view",
      "type": "function"
    },
    {
      "inputs": [
        {
          "internalType": "address",
          "name": "owner",
          "type": "address"
        },
        {
          "internalType": "address",
          "name": "operator",
          "type": "address"
        }
      ],
      "name": "isApprovedForAll",
      "outputs": [
        {
          "internalType": "bool",
          "name": "",
          "type": "bool"
        }
      ],
      "stateMutability": "view",
      "type": "function"
    },
    {
      "inputs": [],
      "name": "name",
      "outputs": [
        {
          "internalType": "string",
          "name": "",
          "type": "string"
        }
      ],
      "stateMutability": "view",
      "type": "function"
    },
    {
      "inputs": [],
      "name": "owner",
      "outputs": [
        {
          "internalType": "address",
          "name": "",
          "type": "address"
        }
      ],
      "stateMutability": "view",
      "type": "function"
    },
    {
      "inputs": [
        {
          "internalType": "uint256",
          "name": "tokenId",
          "type": "uint256"
        }
      ],
      "name": "ownerOf",
      "outputs": [
        {
          "internalType": "address",
          "name": "",
          "type": "address"
        }
      ],
      "stateMutability": "view",
      "type": "function"
    },
    {
      "inputs": [],
      "name": "renounceOwnership",
      "outputs": [],
      "stateMutability": "nonpayable",
      "type": "function"
    },
    {
      "inputs": [
        {
          "internalType": "address",
          "name": "to",
          "type": "address"
        }
      ],
      "name": "safeMint",
      "outputs": [],
      "stateMutability": "nonpayable",
      "type": "function"
    },
    {
      "inputs": [
        {
          "internalType": "address",
          "name": "from",
          "type": "address"
        },
        {
          "internalType": "address",
          "name": "to",
          "type": "address"
        },
        {
          "internalType": "uint256",
          "name": "tokenId",
          "type": "uint256"
        }
      ],
      "name": "safeTransferFrom",
      "outputs": [],
      "stateMutability": "nonpayable",
      "type": "function"
    },
    {
      "inputs": [
        {
          "internalType": "address",
          "name": "from",
          "type": "address"
        },
        {
          "internalType": "address",
          "name": "to",
          "type": "address"
        },
        {
          "internalType": "uint256",
          "name": "tokenId",
          "type": "uint256"
        },
        {
          "internalType": "bytes",
          "name": "data",
          "type": "bytes"
        }
      ],
      "name": "safeTransferFrom",
      "outputs": [],
      "stateMutability": "nonpayable",
      "type": "function"
    },
    {
      "inputs": [
        {
          "internalType": "address",
          "name": "operator",
          "type": "address"
        },
        {
          "internalType": "bool",
          "name": "approved",
          "type": "bool"
        }
      ],
      "name": "setApprovalForAll",
      "outputs": [],
      "stateMutability": "nonpayable",
      "type": "function"
    },
    {
      "inputs": [
        {
          "internalType": "bytes4",
          "name": "interfaceId",
          "type": "bytes4"
        }
      ],
      "name": "supportsInterface",
      "outputs": [
        {
          "internalType": "bool",
          "name": "",
          "type": "bool"
        }
      ],
      "stateMutability": "view",
      "type": "function"
    },
    {
      "inputs": [],
      "name": "symbol",
      "outputs": [
        {
          "internalType": "string",
          "name": "",
          "type": "string"
        }
      ],
      "stateMutability": "view",
      "type": "function"
    },
    {
      "inputs": [
        {
          "internalType": "uint256",
          "name": "tokenId",
          "type": "uint256"
        }
      ],
      "name": "tokenURI",
      "outputs": [
        {
          "internalType": "string",
          "name": "",
          "type": "string"
        }
      ],
      "stateMutability": "view",
      "type": "function"
    },
    {
      "inputs": [
        {
          "internalType": "address",
          "name": "from",
          "type": "address"
        },
        {
          "internalType": "address",
          "name": "to",
          "type": "address"
        },
        {
          "internalType": "uint256",
          "name": "tokenId",
          "type": "uint256"
        }
      ],
      "name": "transferFrom",
      "outputs": [],
      "stateMutability": "nonpayable",
      "type": "function"
    },
    {
      "inputs": [
        {
          "internalType": "address",
          "name": "newOwner",
          "type": "address"
        }
      ],
      "name": "transferOwnership",
      "outputs": [],
      "stateMutability": "nonpayable",
      "type": "function"
    }
  ],
  "bytecode": "0x60806040523480156200001157600080fd5b506040516200141738038062001417833981016040819052620000349162000136565b806040518060400160405280601181526020017025242aafa2aa242fa430b1b5b0ba3437b760791b8152506040518060400160405280600781526020016609490aabe8aa8960cb1b81525081600090816200009091906200020d565b5060016200009f82826200020d565b5050506001600160a01b038116620000d157604051631e4fbdf760e01b81526000600482015260240160405180910390fd5b620000dc81620000e4565b5050620002d9565b600680546001600160a01b038381166001600160a01b0319831681179093556040519116919082907f8be0079c531659141344cd1fd0a4f28419497f9722a3daafe3b4186f6b6457e090600090a35050565b6000602082840312156200014957600080fd5b81516001600160a01b03811681146200016157600080fd5b9392505050565b634e487b7160e01b600052604160045260246000fd5b600181811c908216806200019357607f821691505b602082108103620001b457634e487b7160e01b600052602260045260246000fd5b50919050565b601f8211156200020857600081815260208120601f850160051c81016020861015620001e35750805b601f850160051c820191505b818110156200020457828155600101620001ef565b5050505b505050565b81516001600160401b0381111562000229576200022962000168565b62000241816200023a84546200017e565b84620001ba565b602080601f831160018114620002795760008415620002605750858301515b600019600386901b1c1916600185901b17855562000204565b600085815260208120601f198616915b82811015620002aa5788860151825594840194600190910190840162000289565b5085821015620002c95787850151600019600388901b60f8161c191681555b5050505050600190811b01905550565b61112e80620002e96000396000f3fe608060405234801561001057600080fd5b50600436106101165760003560e01c806370a08231116100a2578063a22cb46511610071578063a22cb46514610239578063b88d4fde1461024c578063c87b56dd1461025f578063e985e9c514610272578063f2fde38b1461028557600080fd5b806370a08231146101f7578063715018a6146102185780638da5cb5b1461022057806395d89b411461023157600080fd5b806323b872dd116100e957806323b872dd1461019857806340d097c3146101ab57806342842e0e146101be57806342966c68146101d15780636352211e146101e457600080fd5b806301ffc9a71461011b57806306fdde0314610143578063081812fc14610158578063095ea7b314610183575b600080fd5b61012e610129366004610d77565b610298565b60405190151581526020015b60405180910390f35b61014b6102ea565b60405161013a9190610de4565b61016b610166366004610df7565b61037c565b6040516001600160a01b03909116815260200161013a565b610196610191366004610e2c565b6103a5565b005b6101966101a6366004610e56565b6103b4565b6101966101b9366004610e92565b610444565b6101966101cc366004610e56565b610465565b6101966101df366004610df7565b610485565b61016b6101f2366004610df7565b610491565b61020a610205366004610e92565b61049c565b60405190815260200161013a565b6101966104e4565b6006546001600160a01b031661016b565b61014b6104f8565b610196610247366004610ead565b610507565b61019661025a366004610eff565b610512565b61014b61026d366004610df7565b610529565b61012e610280366004610fdb565b61059e565b610196610293366004610e92565b6105cc565b60006001600160e01b031982166380ac58cd60e01b14806102c957506001600160e01b03198216635b5e139f60e01b145b806102e457506301ffc9a760e01b6001600160e01b03198316145b92915050565b6060600080546102f99061100e565b80601f01602080910402602001604051908101604052809291908181526020018280546103259061100e565b80156103725780601f1061034757610100808354040283529160200191610372565b820191906000526020600020905b81548152906001019060200180831161035557829003601f168201915b5050505050905090565b60006103878261060a565b506000828152600460205260409020546001600160a01b03166102e4565b6103b0828233610643565b5050565b6001600160a01b0382166103e357604051633250574960e11b8152600060048201526024015b60405180910390fd5b60006103f0838333610650565b9050836001600160a01b0316816001600160a01b03161461043e576040516364283d7b60e01b81526001600160a01b03808616600483015260248201849052821660448201526064016103da565b50505050565b600780546000918261045583611048565b9190505590506103b08282610749565b61048083838360405180602001604052806000815250610512565b505050565b6103b060008233610650565b60006102e48261060a565b60006001600160a01b0382166104c8576040516322718ad960e21b8152600060048201526024016103da565b506001600160a01b031660009081526003602052604090205490565b6104ec610763565b6104f66000610790565b565b6060600180546102f99061100e565b6103b03383836107e2565b61051d8484846103b4565b61043e84848484610881565b60606105348261060a565b50600061054c60408051602081019091526000815290565b9050600081511161056c5760405180602001604052806000815250610597565b80610576846109aa565b60405160200161058792919061106f565b6040516020818303038152906040525b9392505050565b6001600160a01b03918216600090815260056020908152604080832093909416825291909152205460ff1690565b6105d4610763565b6001600160a01b0381166105fe57604051631e4fbdf760e01b8152600060048201526024016103da565b61060781610790565b50565b6000818152600260205260408120546001600160a01b0316806102e457604051637e27328960e01b8152600481018490526024016103da565b6104808383836001610a3d565b6000828152600260205260408120546001600160a01b039081169083161561067d5761067d818486610b43565b6001600160a01b038116156106bb5761069a600085600080610a3d565b6001600160a01b038116600090815260036020526040902080546000190190555b6001600160a01b038516156106ea576001600160a01b0385166000908152600360205260409020805460010190555b60008481526002602052604080822080546001600160a01b0319166001600160a01b0389811691821790925591518793918516917fddf252ad1be2c89b69c2b068fc378daa952ba7f163c4a11628f55a4df523b3ef91a4949350505050565b6103b0828260405180602001604052806000815250610ba7565b6006546001600160a01b031633146104f65760405163118cdaa760e01b81523360048201526024016103da565b600680546001600160a01b038381166001600160a01b0319831681179093556040519116919082907f8be0079c531659141344cd1fd0a4f28419497f9722a3daafe3b4186f6b6457e090600090a35050565b6001600160a01b03821661081457604051630b61174360e31b81526001600160a01b03831660048201526024016103da565b6001600160a01b03838116600081815260056020908152604080832094871680845294825291829020805460ff191686151590811790915591519182527f17307eab39ab6107e8899845ad3d59bd9653f200f220920489ca2b5937696c31910160405180910390a3505050565b6001600160a01b0383163b1561043e57604051630a85bd0160e11b81526001600160a01b0384169063150b7a02906108c390339088908790879060040161109e565b6020604051808303816000875af19250505080156108fe575060408051601f3d908101601f191682019092526108fb918101906110db565b60015b610967573d80801561092c576040519150601f19603f3d011682016040523d82523d6000602084013e610931565b606091505b50805160000361095f57604051633250574960e11b81526001600160a01b03851660048201526024016103da565b805181602001fd5b6001600160e01b03198116630a85bd0160e11b146109a357604051633250574960e11b81526001600160a01b03851660048201526024016103da565b5050505050565b606060006109b783610bbe565b600101905060008167ffffffffffffffff8111156109d7576109d7610ee9565b6040519080825280601f01601f191660200182016040528015610a01576020820181803683370190505b5090508181016020015b600019016f181899199a1a9b1b9c1cb0b131b232b360811b600a86061a8153600a8504945084610a0b57509392505050565b8080610a5157506001600160a01b03821615155b15610b13576000610a618461060a565b90506001600160a01b03831615801590610a8d5750826001600160a01b0316816001600160a01b031614155b8015610aa05750610a9e818461059e565b155b15610ac95760405163a9fbf51f60e01b81526001600160a01b03841660048201526024016103da565b8115610b115783856001600160a01b0316826001600160a01b03167f8c5be1e5ebec7d5bd14f71427d1e84f3dd0314c0f7b2291e5b200ac8c7c3b92560405160405180910390a45b505b5050600090815260046020526040902080546001600160a01b0319166001600160a01b0392909216919091179055565b610b4e838383610c96565b610480576001600160a01b038316610b7c57604051637e27328960e01b8152600481018290526024016103da565b60405163177e802f60e01b81526001600160a01b0383166004820152602481018290526044016103da565b610bb18383610cfc565b6104806000848484610881565b60008072184f03e93ff9f4daa797ed6e38ed64bf6a1f0160401b8310610bfd5772184f03e93ff9f4daa797ed6e38ed64bf6a1f0160401b830492506040015b6d04ee2d6d415b85acef81000000008310610c29576d04ee2d6d415b85acef8100000000830492506020015b662386f26fc100008310610c4757662386f26fc10000830492506010015b6305f5e1008310610c5f576305f5e100830492506008015b6127108310610c7357612710830492506004015b60648310610c85576064830492506002015b600a83106102e45760010192915050565b60006001600160a01b03831615801590610cf45750826001600160a01b0316846001600160a01b03161480610cd05750610cd0848461059e565b80610cf457506000828152600460205260409020546001600160a01b038481169116145b949350505050565b6001600160a01b038216610d2657604051633250574960e11b8152600060048201526024016103da565b6000610d3483836000610650565b90506001600160a01b03811615610480576040516339e3563760e11b8152600060048201526024016103da565b6001600160e01b03198116811461060757600080fd5b600060208284031215610d8957600080fd5b813561059781610d61565b60005b83811015610daf578181015183820152602001610d97565b50506000910152565b60008151808452610dd0816020860160208601610d94565b601f01601f19169290920160200192915050565b6020815260006105976020830184610db8565b600060208284031215610e0957600080fd5b5035919050565b80356001600160a01b0381168114610e2757600080fd5b919050565b60008060408385031215610e3f57600080fd5b610e4883610e10565b946020939093013593505050565b600080600060608486031215610e6b57600080fd5b610e7484610e10565b9250610e8260208501610e10565b9150604084013590509250925092565b600060208284031215610ea457600080fd5b61059782610e10565b60008060408385031215610ec057600080fd5b610ec983610e10565b915060208301358015158114610ede57600080fd5b809150509250929050565b634e487b7160e01b600052604160045260246000fd5b60008060008060808587031215610f1557600080fd5b610f1e85610e10565b9350610f2c60208601610e10565b925060408501359150606085013567ffffffffffffffff80821115610f5057600080fd5b818701915087601f830112610f6457600080fd5b813581811115610f7657610f76610ee9565b604051601f8201601f19908116603f01168101908382118183101715610f9e57610f9e610ee9565b816040528281528a6020848701011115610fb757600080fd5b82602086016020830137600060208483010152809550505050505092959194509250565b60008060408385031215610fee57600080fd5b610ff783610e10565b915061100560208401610e10565b90509250929050565b600181811c9082168061102257607f821691505b60208210810361104257634e487b7160e01b600052602260045260246000fd5b50919050565b60006001820161106857634e487b7160e01b600052601160045260246000fd5b5060010190565b60008351611081818460208801610d94565b835190830190611095818360208801610d94565b01949350505050565b6001600160a01b03858116825284166020820152604081018390526080606082018190526000906110d190830184610db8565b9695505050505050565b6000602082840312156110ed57600080fd5b815161059781610d6156fea2646970667358221220235830e5bc6ea7f8cffc5fecedf8656c012899d01d1c05123d7175396e301fa064736f6c63430008140033",
  "linkReferences": {},
  "deployedLinkReferences": {}
}